:020000040800F2
:10000000100800204D0200085502000857020008A1
:10001000590200085B0200085D02000800000000B1
:100020000000000000000000000000005F02000867
:100030006102000800000000630200086502000879
:1000400067020008670200086702000867020008EC
:1000500067020008670200086702000867020008DC
:1000600067020008670200086702000867020008CC
:1000700067020008670200086702000867020008BC
:1000800067020008670200086702000867020008AC
:10009000670200086702000867020008670200089C
:1000A000670200086702000867020008670200088C
:1000B000670200086702000867020008670200087C
:1000C000670200086702000867020008670200086C
:1000D000670200086702000867020008670200085C
:1000E000551C000867020008670200086702000844
:1000F000670200086702000867020008670200083C
:10010000670200086702000867020008670200082B
:10011000670200086702000867020008670200081B
:10012000670200086702000867020008670200080B
:1001300067020008670200086702000867020008FB
:1001400067020008670200086702000867020008EB
:1001500067020008670200086702000867020008DB
:1001600067020008670200086702000867020008CB
:1001700067020008670200086702000867020008BB
:10018000670200086702000800F002F800F04FF86C
:100190000AA090E8000C82448344AAF10107DA45E2
:1001A00001D100F044F8AFF2090EBAE80F0013F0E5
:1001B000010F18BFFB1A43F001031847FC51000060
:1001C0001C520000103A24BF78C878C1FAD85207F0
:1001D00024BF30C830C144BF04680C6070470000C1
:1001E0000023002400250026103A28BF78C1FBD840
:1001F000520728BF30C148BF0B607047662904F022
:100200003682642900F0A680732900F076840020ED
:1002100070471FB504F021FA00F074FC04000020C0
:10022000002103F0A1FFE0601FBD10B510BD00F07C
:1002300065FD1146FFF7EDFF03F036FC00F083FD8E
:1002400003B4FFF7F2FF03BC00F0C6FD0948804786
:1002500009480047FEE7FEE7FEE7FEE7FEE7FEE7A8
:10026000FEE7FEE7FEE7FEE704480549054A064BC0
:1002700070470000752E0008890100081002002058
:100280001008002010040020100400200FB41CB53A
:10029000074B06AA7B4469460090059800F003FCD2
:1002A0000020694600F012FC1CBC5DF814FB000045
:1002B0003508000070B5044685690068C10601D59F
:1002C000302600E02026C00707D070BDD4E9012108
:1002D00030469047206A401C20626D1EF6D570BDE6
:1002E00070B5044685690078C00707D170BDD4E9B0
:1002F000012120209047206A401C20626D1EF6D507
:1003000070BD70B50C460546012A05D028788006D8
:1003100000D5EA69002302E0012305E05B1C93425B
:1003200002D2E05C0028F9D1A869E618C01AA861D9
:10033000286A184428622846FFF7BCFF04E0D5E984
:10034000012114F8010B9047B442F8D32846FFF777
:10035000C7FF70BD2DE9F0410646002410687529DD
:10036000314616A510D0AFF30080002802DA4042D3
:1003700013A507E031688A0701D512A502E04907F5
:1003800004D511A5012401E0AFF3008000210A2269
:1003900006F1240709E0B0FBF2FCB0FBF2F302FB2C
:1003A0001C00303078541846491C0028F3D12346ED
:1003B0002A463046BDE8F04100F009B900000000CF
:1003C0002D0000002B000000200000002DE9F04768
:1003D0004FF0000A89460446C0F820A02046E16894
:1003E0008847002876D0252806D0D4E901219047F7
:1003F000206A401C2062F1E7E1682046002588471A
:10040000C4F81CA006460027C4F818A02A2E09D05C
:10041000304602F009FE38B304EB8708303EC8F8D6
:10042000186019E059F8041B204604EB870291611B
:10043000E1688847012F064618D1E069002820DAD4
:1004400025F020051DE0D8F8180000EB800006EB31
:1004500040003038C8F818002046E1688847064652
:1004600002F0E2FD0028EED1012F0AD02E2E08D195
:100470002046E16888477F1C0646022F45F020058C
:10048000C4DBA069002803DA404245F00105A06101
:10049000E80701D025F01005B6B1A6F141001928F2
:1004A00002D8203645F400654A463146204625608C
:1004B0004D46FFF7A3FE58B1012806D0ED1D25F0EB
:1004C000070000F1080989E704E005F1040985E760
:1004D00030468AE7206ABDE8F087032A40F2308080
:1004E00010F0030C00F0158011F8013BBCF1020F75
:1004F000624498BF11F801CB00F8013B38BF11F8F6
:10050000013BA2F1040298BF00F801CB38BF00F80C
:10051000013B11F0030300F02580083AC0F0088089
:1005200051F8043B083A51F804CBA0E80810F5E76D
:10053000121D5CBF51F8043B40F8043BAFF3008050
:10054000D20724BF11F8013B11F801CB48BF11F8C5
:10055000012B24BF00F8013B00F801CB48BF00F895
:10056000012B704710B5203AC0F00B80B1E818504D
:10057000203AA0E81850B1E81850A0E81850BFF48D
:10058000F5AF5FEA027C24BFB1E81850A0E818502C
:1005900044BF18C918C0BDE810405FEA827C24BF80
:1005A00051F8043B40F8043B08BF7047D20728BF0E
:1005B00031F8023B48BF11F8012B28BF20F8023B5D
:1005C00048BF00F8012B70477047704770472DE90E
:1005D000F0470D4699469246044600F1240801680A
:1005E000880604D5E06921F01001216000E00120B7
:1005F000A84201DD471B00E00027A1697A1902EB40
:100600000900081AA0612078C00602D42046FFF72E
:1006100051FE002608E0D4E901211AF806009047AF
:10062000206A401C761C20624E45F4DB2078C00610
:100630000AD52046FFF73EFE06E0D4E9012130202E
:100640009047206A401C2062381EA7F10107F4DCA5
:1006500007E0D4E9012118F805009047206A401C02
:100660002062281EA5F10105F3DC2046FFF738FEC5
:100670002078000602D50220BDE8F0870120FBE7C4
:1006800070472DE9FF4F0C461E464FF0FF378BB0E9
:10069000D2E90001DDF860800A908A46C1F30A556C
:1006A00005B93D46002108464FF00000BAF1000FA1
:1006B00000F4400005DA00EB80004FF4400101EA4D
:1006C00050004FEA9059B9F1010F00DDB9460A9880
:1006D00050EA4A000ED044F61050A5F2FF354543CB
:1006E0002F14B8F1000F1ED07542291E1EDDC9F16E
:1006F00000021CE0B8F1010F4FF0000001D03021E2
:1007000003E0F24305E02154401CB042FBDB3046DD
:100710000022002121540B99C1F80880C1E9002072
:100720000FB0BDE8F08FBD1B6D1CDEE74A4600DA56
:10073000694206A800F070FA06AB93E8070003AB25
:1007400083E8070050460A9900F04DFB8DE807004A
:10075000A0F500501F3800900398002D09DD42F2EB
:100760001F014A46084403A90390684600F0ACFD07
:1007700008E0A0F500504A461F3803A903906846D8
:1007800000F0B6FD8DE807000004000C03D04FF028
:10079000FF30410800E01046B8F1000F03D00022FE
:1007A000009215461EE0751E05D400F0AFF93032F8
:1007B00062556D1EF9D5B3460122084302D00022CE
:1007C0007F1C04E02078302801D100227F1E002AFF
:1007D000099786D01DE0112D07DA00F097F9303225
:1007E00062556D1C50EA0102F5D1084302D0009811
:1007F000C8B10EE00021681E05E0235C625C635412
:100800002254401E491C8142F7DBAB46A81B401E08
:100810000990002004F80B000B98099AC0F8088092
:10082000C0E9002B7CE711264FF0000859E72DE9BD
:10083000F04F88460446D21D22F0070191B0D1E95D
:100840000001CDE90A0102F0D7FB02460B98C00F68
:1008500001D02D2007E02068810701D52B2002E080
:10086000202101EAC000032A099001D0072A05DBF4
:1008700003464146204600F08FF90BE120788006C0
:1008800001D5E06900E00620B8F1650F814606D089
:10089000B8F1660F18D0B8F1670F70D131E00020C1
:1008A000B9F1110F009001DB112301E009F10103FF
:1008B0000AAA01A90CA8FFF7E4FEDDE90C700026E6
:1008C00009F10105834647E001204B4600904FF0B7
:1008D00000470AAA01A90CA8FFF7D3FEDDE90DB075
:1008E0000C995D46002610B909F101000D18B9EB0D
:1008F000050003D4C0F1FF3609F10105A5EB09009D
:100900002BE0B9F1010F01DA4FF001090020B9F134
:10091000110F0090484601DD112300E003460AAAAA
:1009200001A90CA8FFF7ADFEDDE90C704D460026CD
:100930008346207800070AD4AB4500DA5D4601A85B
:10094000012D04DD411911F8011C302907D04F4554
:1009500002DA17F1040F04DA012082460FE06D1E5F
:10096000EEE7002F02DCED1B3E4403E0781CA842BA
:1009700000DD7D1CB81B00F1010A4FF00047207814
:10098000000703D4AA4501DB4FF0FF3A0021B7F17D
:10099000004F0DF143088DF8431024D002202B2383
:1009A000002F01DA7F422D230A21021EA0F101004F
:1009B00000DC5FB197FBF1FC97FBF1F201FB1C7CC3
:1009C00017460CF1300C08F801CDEEE7A8F1010054
:1009D00003702188090501D5452100E06521A0F1BA
:1009E000010800F8011C09980FA9A1EB0807FF1DD9
:1009F00000B10120411901EBEA70A1693844081ADD
:100A0000401EA0612078C00602D42046FFF752FCA9
:100A1000099828B1D4E901219047206A401C20623E
:100A20002078C00622D52046FFF744FC1EE0002EA9
:100A300004DBB34502DD01A8805D00E03020D4E98D
:100A400001219047206A401C2062761CAAF1010017
:100A50005FEA000A0AD100F055F8C0680168405CFE
:100A6000D4E901219047206A401C2062281EA5F18C
:100A70000105DCDC07E0D4E9012118F8010B9047FF
:100A8000206A401C2062381EA7F10107F3DC2046D3
:100A9000FFF726FC032011B043E6000001694A1C61
:100AA00002610878704700B58FB0CDE901310021AF
:100AB000059105497944CDE9031011466846FFF7D1
:100AC00085FC0FB000BD0000E5FFFFFF0A6802F8DB
:100AD000010B0A60704710B5436913B1AFF3008092
:100AE00001E0FFF70EFC012010BD127800F1240197
:100AF0000A7000224A700122EDE711684FF0FF32C0
:100B0000E9E7000000487047D001002030B5B0F19F
:100B10000A024FEA900E71F100034EEA817EB0EBBB
:100B20000E0061EB91014FEA101E4EEA017E10EBC0
:100B30000E0041EB11114FEA102E4EEA016E10EB40
:100B40000E0041EB11214FEA104E4EEA014E10EB20
:100B50000E0041EB1141401841F100014FEAD00075
:100B600040EA41704FEAD10110EB80054FEA810461
:100B700044EA907444EB01046D1944EB0404521BE5
:100B8000A3414FF0000348BF0A3200D530BD401CDE
:100B900041F1000130BD00002DE9F0411F4604463F
:100BA00003260168072A01F4006004DB08B116A5DA
:100BB00005E016A503E008B115A500E015A521F094
:100BC00010002060A069C01EA0610FB1401EA0618E
:100BD0002046FFF76FFB4FB1D4E90121384690471B
:100BE000206A401C2062C01C206206E0206AFAE7EE
:100BF000D4E9012115F8010B9047761EF8D2204662
:100C0000FFF76EFBBDE8F0814E414E006E616E0055
:100C1000494E4600696E66002DE9F047814616464A
:100C20008AB0334878440DC88DE80D0030487844C8
:100C3000801C03AC0DC884E80D0041F69B300844CD
:100C4000372190FBF1F290FBF1F5A5F1800501FB56
:100C500012041B3C02D56442012000E00020DFF8B2
:100C600090A080460027FA44AAF1BE0A0DE0E007F2
:100C700009D03246684607EB47010AEB810100F0D4
:100C800037FB8DE8070064107F1C002CEFD1184F54
:100C90007F44AC3F18E0E80714D007EB04100DF1D7
:100CA000180A90E80E008AE80E00C068F04201D1F0
:100CB00098190890324606A903A800F019FB03AB67
:100CC00083E807006D10641C002DE4D132466946AC
:100CD000B8F1000F03A802D000F0F6FA01E000F02E
:100CE00007FBC9E90001C9F808200AB0BDE8F08790
:100CF0001C46000000487047B00100207546FFF711
:100D0000F9FFAE4605006946534620F007008546C8
:100D100018B020B5FFF7A8FABDE820404FF0000654
:100D20004FF000074FF000084FF0000B21F00701D3
:100D3000AC46ACE8C009ACE8C009ACE8C009ACE816
:100D4000C0098D46704710B50446AFF300802046B9
:100D5000BDE81040FFF774BA4FF0013C50F8042B87
:100D600051F8043B9A4221D1A2EB0C03934313EABE
:100D7000CC1317D150F8042B51F8043B9A4215D1EB
:100D8000A2EB0C03934313EACC130BD150F8042BC2
:100D900051F8043B9A4209D1A2EB0C03934313EAA6
:100DA000CC13DBD04FF00000704700BFD01A01BA5F
:100DB000B1FA81F101F0180122FA01F0CB40C1F142
:100DC0002001DBB2C0B2C01A2CFA01F3D11A914350
:100DD00011EAC311E6D1704701491820ABBEFEE706
:100DE0002600020070475FEA400C08BF91F0000F38
:100DF0004FEA8C234FEAC12243EA51514FEA1C507B
:100E000018BF00F5F0404FEA300018BF41F0004134
:100E10005FEA6C5C00F02980BCF1FF3F08BF40F046
:100E200080407047130C06BF12044FF0100C4FF0B7
:100E3000000C130E04BF12020CF1080C130F04BFB8
:100E400012010CF1040C930F04BF92000CF1020C80
:100E5000D30F04BF52000CF1010C11464FF00002F9
:100E6000A0F11F00A0EB0C00704711F0004F08BF6D
:100E7000704731F000413FF4D5AF0B0C06BF0904B9
:100E80004FF0100C4FF0000C0B0E04BF09020CF1D8
:100E9000080C0B0F04BF09010CF1040C8B0F04BFED
:100EA00089000CF1020CCB0F04BF49000CF1010CBE
:100EB000CCF12003A0EB0C0022FA03F302FA0CF2AF
:100EC00041EA030100F10100704720F07F4C80EA05
:100ED000030023F07F47ACEB070303F57C5300F0DE
:100EE000004003F1FF032DE980494FEA154B09B497
:100EF0004FEA144325EA0B4E24EA03480FF2042676
:100F000006EB132749083E785FEA320203FB0667C7
:100F1000C7F5000707FB06F64FEA54374FEAD646F7
:100F200006F1020607FB066CCCF1005C4FEA1C4799
:100F30002CEA074C07FB06F40CFB06F504EB154600
:100F40004FEA961634BF00204FF000404FEAD137E9
:100F500006FB07FC4FEA1C4C0CFB0BF7D21B03FBF8
:100F60000CF761EB07010CFB0EF7B0EB074072EBDF
:100F700017420CFB08F734BFA2EB0742B2EB074263
:100F800061EB17414FEA0C444FEA910706FB07FC5F
:100F90004FEA1C4C0CFB0BF7B0EBC74072EB57321F
:100FA00003FB0CF734BFA2EBC742B2EBC74261EBC5
:100FB00057310CFB0EF7B0EBC70072EB57720CFB0E
:100FC00008F734BFA2EBC702B2EBC70261EB57715F
:100FD000039F4FEA816141EA921104EBCC044FEA8E
:100FE000D1374FEA826206FB07FC42EA90124FEAD1
:100FF00080604FEA1C4C0CFB0BF7D21B03FB0CF779
:1010000061EB07010CFB0EF7B0EB074072EB1742E8
:101010000CFB08F734BFA2EB0742B2EB074261EBCF
:1010200017414FEA8C554FEA910704EB9C2406FBCD
:1010300007FC4FEA1C4C0CFB0BF7B0EBC74072EB04
:10104000573203FB0CF734BFA2EBC742B2EBC742E7
:1010500061EB57310CFB0EF7B0EBC70072EB577228
:101060000CFB08F734BFA2EBC702B2EBC70261EB7F
:10107000577115EB4C254FEA816141EA92114FEA15
:1010800082624FEAD13742EA901206FB07FC44F134
:1010900000044FEA80604FEA1C4C0CFB0BF7D21B9C
:1010A00003FB0CF761EB07010CFB0EF7B0EB0740FD
:1010B00072EB17420CFB08F734BFA2EB0742B2EB0E
:1010C000074261EB174115EB1C154FEA813141EAEC
:1010D00092414FEA823242EA90424FEA80304FEA30
:1010E0000C7644F1000448EA03434EEA0B484FF003
:1010F000000EB2EB080C71EB030724BF62463946C1
:101100004EEB0E0E4FF0000B0018524149414BEBD5
:101110000B0BB2EB080C71EB03077BF1000B24BF48
:10112000624639464EEB0E0E4FF0000B001852414E
:1011300049414BEB0B0BB2EB080C71EB03077BF156
:10114000000B24BF624639464EEB0E0E51EA0207F1
:1011500018BF46F0010616EB0E7655F1000254F169
:10116000000103D5BDE88901BDE80088BDE889011B
:10117000BDE80048B619524141EB0101A3F101035A
:10118000704780807F7E7D7C7B7A797877767675F4
:101190007473727171706F6E6E6D6C6C6B6A6A696C
:1011A0006868676666656464636362616160605F06
:1011B0005F5E5E5D5D5C5C5B5B5A5A59595858577F
:1011C00057565655555554545353525252515150E7
:1011D00050504F4F4F4E4E4D4D4D4C4C4C4B4B4B3A
:1011E0004A4A4A4949494848484747474746464680
:1011F00045454544444444434343434242424241BB
:101200004141002B26D4770021D01CB54FEA370787
:1012100003B44FF010004FF010014FF000000FBC6E
:10122000BDE810400BF1010BBBF1010F08BF5FEAF5
:10123000170722BF12F1010211F101014FF0004125
:1012400043F1000300F0004043EA00007047F9D387
:101250005708DAE746EA064613F1400F4FEA16460A
:101260001FDD13F1200FDFBF16430A460021203394
:101270005B42C8D0C3F1200746EA064602FA07F7E8
:101280004FEA164646EA0706C3F1200722FA03F2A0
:1012900001FA07F721FA03F14FF0000342EA0702CF
:1012A000B1E746EA020646EA06464FEA164646EA2D
:1012B0000106BCBF46EA0646360C4FF000034FF06D
:1012C00000024FF000019EE72DE9C048934630B47C
:1012D00091E8380007C831EA400C48BF34EA430CB3
:1012E00003D5FFF7F2FDFFF78CFFF0BCBDE80088E7
:1012F0002DE9C048934630B491E8380007C810F093
:10130000804F08BF13F0804F03D100F005F8FFF7BE
:1013100078FFF0BCBDE8008820F07F4780EA03003A
:1013200023F07F4C07EB0C03A3F57C5300F0004047
:10133000A3F1FE0392F0000F00F0B38095F0000FD0
:1013400000F077802DE901494FEA11404FEA144639
:1013500021EA004800FB06FC24EA064708FB06F6E3
:1013600007FB08F800FB07F718EB06484CEB164C98
:101370004FEA124B18EB07484FEA15464CEB174063
:1013800022EA0B4E0BFB06FC25EA06470EFB06F68F
:1013900007FB0EFE0BFB07F71EEB064E4CEB164C45
:1013A0004FF000061EEB074E4CEB174B18EB0B08EB
:1013B00040F1000018EB0E0B58EB000840F1000064
:1013C0008F1A4FF000013CBFC943661B14BFB5EB39
:1013D000040C00213CBFC943F61B4FEA17444EEAF8
:1013E0008E0E27EA04454FEA1C4704FB07622CEAED
:1013F000074C05FB07F70CFB05F604FB0CFC16EB92
:10140000074642EB174216EB0C4642EB1C421BEB25
:10141000060658EB0202414146EA9E0601D5BDE8A8
:101420000189B619524141EB0101A3F10103BDE865
:1014300001894FEA14454FEA114724EA054621EA9B
:10144000074C05FB07F406FB07F70CFB06F105FB51
:101450000CFC11EB074144EB17444FEA124711EB28
:101460000C4144EB1C4422EA074C05FB07F206FB47
:1014700007F70CFB06F605FB0CFC16EB074642EBE8
:10148000174216EB0C4642EB1C456A1854F100015A
:1014900048BF7047B619524141EB0101A3F1010366
:1014A000704795F0000F37D04FEA11424FEA1447CA
:1014B00021EA024624EA074C02FB07F106FB07F784
:1014C0000CFB06F402FB0CFC14EB074441EB174148
:1014D0004FEA154714EB0C4441EB1C4125EA074C3D
:1014E00002FB07F506FB07F70CFB06F602FB0CFCFC
:1014F00016EB074645EB174516EB0C4645EB1C4231
:10150000121951F1000148BF7047B619524141EB21
:101510000101A3F1010370474FEA14454FEA114757
:1015200024EA054621EA074C05FB07F106FB07F70D
:101530000CFB06F24FF0000605FB0CFC12EB074219
:1015400041EB174112EB0C4251EB1C4148BF704775
:10155000921841EB0101A3F1010370470FB430B5BC
:1015600089B02F9D002D3ED10EAA32A102A8FEF710
:101570008DFE0020314A0090517A107A012302AA90
:1015800002F0A3FC9DF833009DF83210CDE9001065
:101590009DF831309DF8302029A102A8FEF776FE93
:1015A0000020264A0090517E107E012302AA02F0FC
:1015B0008CFC0CA8C0790CA98979CDE900100CA885
:1015C00043799DF834201EA102A8FEF75FFE00209B
:1015D0001A4A009092F8291092F82800012302AAD2
:1015E00002F073FC21E000241DE004EB840000EB1A
:1015F000C4010DF1520000EB410215A102A8FEF753
:1016000045FE00206200D21D0C4B03EBC20200908D
:1016100051786200D21D13F83200012302AA02F0B1
:1016200054FC601CC4B2042CDFDB09B030BC5DF894
:1016300014FB000025732020000000003450000837
:1016400025642E25642E25642E256420202020006C
:10165000257320202020000010B5044624B906215F
:10166000044801F0E9FD04E008210248303001F0AF
:10167000E3FD10BD345000080FB400B587B008A8D2
:10168000407A08A9097ACDE9001008A8C3799DF825
:10169000262020A102A8FEF7F9FD0020214A009093
:1016A000517A107A012302AA02F00FFC08A8407BAD
:1016B00008A9097BCDE9001008A8C37A9DF82A2063
:1016C00014A102A8FEF7E2FD0020164A0090517E08
:1016D000107E012302AA02F0F8FB08A8407C08A9AA
:1016E000097CCDE9001008A8C37B9DF82E2009A134
:1016F00002A8FEF7CBFD00200A4A009092F82910BC
:1017000092F82800012302AA02F0DFFB07B05DF87F
:1017100014FB000025642E25642E25642E256420EC
:10172000202020000450000810B50621014801F0D7
:1017300083FD10BD0450000830B52DED028B83B041
:1017400005461DB903B0BDEC028B30BD002421E07D
:1017500005EB840090ED000A10EE101A084602F026
:101760000BFF41EC180B53EC182B0CA101A8FEF752
:101770008DFD00200B4A02EBC40200905278283203
:10178000D1B2084A12F83400012301AA02F09DFBED
:10179000601CC4B2062CDBDB00BFD3E725362E333A
:1017A000660000009C4F000810B50621014801F0BA
:1017B00043FD10BD9C4F000810B50146062910DC02
:1017C000002006E00022074B03EBC003DA70421C46
:1017D000D0B20628F6DB01234A1E024C04EBC202FB
:1017E000D37010BD780000202DE9F04105460C466D
:1017F00016461F463C2D00DD3C25FB2C00D9FB2462
:1018000004F11000C1B23B463246284601F027FFE2
:10181000BDE8F081F0B595B005460E4601243422AE
:10182000284907A8FEF79EFE18222649343101A850
:10183000FEF798FE00208DF850008DF851008DF8CD
:101840005200042E05DA002E03DD0121701E14AAB9
:1018500011549DF8500000902B78C3EBC30307AFE1
:10186000DA19194B03EBC4035978174B13F83400FA
:10187000012302F02AFB03249DF851000090AB786D
:1018800001AF07EBC302104B03EBC40359780E4BB7
:1018900013F83400012302F018FB05249DF85200D0
:1018A00000906B78C3EBC30307AFDA19064B03EB69
:1018B000C4035978044B13F83400012302F005FBEC
:1018C00015B0F0BD7C5100086C4F000810B5062122
:1018D000014801F0B1FC10BD6C4F000808B50020B4
:1018E000012303A210210090022002F0EEFA08BDAD
:1018F0002020200010B52DED028B0446B0EE408A6A
:10190000012C00D05CB90B48007878B9002000F0B9
:1019100039FA01F0FBFD01200649087006E0B0EE3F
:10192000480A01F0A3FC002002490870BDEC028BBC
:1019300010BD0000C800002010B50821134801F0B8
:101940007BFC52231C221021002001F0D1FE5223E7
:101950003D221021212001F0CBFE98231C225A2188
:10196000002001F0C5FE98233D225A21212001F0DC
:10197000BFFED4231C229C21002001F0B9FED423F9
:101980003D229C21212001F0B3FE10BD78000020F3
:101990000FB470B5002412E0012505EB440504AE38
:1019A000735D04AD15F814200B4D05EB4405697803
:1019B000094D15F8140001F052FE601CC4B2062C4B
:1019C000EADB9DF821309DF82020EC21302001F049
:1019D00046FE70BC5DF814FB5C4F000810B5072193
:1019E000014801F029FC10BDCC4F000810B50C21B6
:1019F000014801F021FC10BDA45000080FB410B53F
:101A00002DED028B84B00020029003908DF804002D
:101A10008DF805004C484078032809DA4A48407898
:101A2000002805DD012148484078401E01AA1154D4
:101A30009DED080A10EE101A084602F09DFD41ECDB
:101A4000180B53EC182B41A102A8FEF71FFC9DF8C0
:101A50000400404A0090517A107A012302AA02F051
:101A600034FA002404E0002002A90855601CC4B226
:101A7000082CF8DB9DED0A0A10EE101A084602F059
:101A80007BFD41EC180B53EC182B30A102A8FEF79C
:101A9000FDFB9DF805002F4A009092F8211092F866
:101AA0002000012302AA02F010FA002404E0002022
:101AB00002A90855601CC4B2082CF8DB9DED090A88
:101AC00010EE101A084602F057FD41EC180B53ECCB
:101AD000182B21A102A8FEF7D9FB00208DF80F00DA
:101AE0001C4A009092F8391092F83800012302AA9B
:101AF00002F0EBF9002404E0002002A90855601C64
:101B0000C4B2082CF8DB9DED0B0A10EE101A084643
:101B100002F032FD41EC180B53EC182B0BA102A87C
:101B2000FEF7B4FB00200B4A009092F8511092F897
:101B30005000012302AA02F0C8F904B0BDEC028BE8
:101B400010BC5DF814FB00006600002025342E3127
:101B500066000000A450000825342E3166202000C5
:101B60003949097819B90221384A117102E0002176
:101B7000364A11713649D1ED020AF4EEC00AF1EE8F
:101B800010FA03D80021314A517102E001212F4A95
:101B9000517122282ED00BDC122820D003DCA0B1FA
:101BA000012847D112E013281BD0142842D117E096
:101BB000322826D004DC23282CD024283AD131E046
:101BC000332820D0342835D11CE000BF02211F4A21
:101BD000117001215171D1709170117132E000BF0B
:101BE00000BF0121194A117000219170012111716A
:101BF000D17027E00121154A117000219170D17038
:101C000020E000BF00BF0121104A11709170002137
:101C1000D17017E001210D4A11700221917000214D
:101C2000D1700FE00121094A117000219170022149
:101C3000D17007E00121054A11705171D170917086
:101C4000117100BF00BF7047D00000205F0000206E
:101C5000D400002010B500F03DFA0A49087008468B
:101C6000007848B108460078FF2805D0064800787B
:101C700010B90120044908704FF4805000F006F8B4
:101C800010BD0000CC000020CD00002001490860FC
:101C900070470000143C0140002123498279002A4A
:101CA0003AD00A46126803689A430B461A600A1D26
:101CB000126803689A430B1D1A60027911440A687E
:101CC00003681A430A60184A0832126803689A4384
:101CD000154B08331A601A1D126803689A43124B99
:101CE0000C331A604279102A0ED11A1F1268036849
:101CF0001A430D4B08331A601A1D126803681A4301
:101D0000094B0C331A600DE00749427911440A6807
:101D100003681A430A6005E0027911440A680368FF
:101D20009A430A6070470000003C01400EB5012153
:101D3000880300F0D7FE0C21002000F087FF4FF44D
:101D40008050009000208DF804000C208DF80500D4
:101D500001208DF806006846FFF79EFF28208DF8C9
:101D6000080002208DF8090000208DF80A000120EB
:101D70008DF80B0002A800F0FBFB0EBD10B501F0C2
:101D8000A9FE10BD70B506465B211C2001F032F89B
:101D90003F21002001F047F801F052F800240DE047
:101DA000002507E0304601F01FF9304601F01CF92C
:101DB000681CC5B2402DF5DB601CC4B2402CEFDBC3
:101DC00070BDF0B50A4600210023002400BF3DE0AD
:101DD000012505FA01F3156805EA03049C4234D194
:101DE00005684F000326BE40B543056015794E00D7
:101DF000B5400668354305601579012D02D0157987
:101E0000022D16D185684F000326BE40B54385607C
:101E100055794E00B5408668354385604568012692
:101E20008E40B5434560456896798E40B6B23543DD
:101E30004560C5684F000326BE40B543C560D579EF
:101E40004E00B540C6683543C560491C1029BFD354
:101E5000F0BDF0B5002300244D07ED0E02FA05F3A6
:101E6000CE1000F1200555F826504E07F70E0F262C
:101E7000BE40B543CF1000F1200646F82750CE10E3
:101E800000F1200555F8265045EA0304CE1000F174
:101E9000200545F82640F0BD0146086980B270472C
:101EA0000246002013690B400BB1012000E0002026
:101EB00070474183704701837047416170470AB1A1
:101EC000018300E04183704710B52DED048B82B093
:101ED00001A9F22001F046FF9DF80400642110FBE7
:101EE00001F401A9F32001F03DFF9DF80400044432
:101EF000204602F0D9FA9FED070B53EC102B02F0AD
:101F00007BF902F047F90549086002B0BDEC048B8B
:101F100010BD0000000000000000594058000020E3
:101F200008B52C480078002853D16946FC2001F000
:101F300019FF9DF80000000200EE100AB8EEC00A7A
:101F4000254880ED010A6946F42001F00BFF224884
:101F5000D0ED010A9DF8000000EE100AB8EE400A2C
:101F600030EE800A1C4880ED010A6946F52001F038
:101F7000F9FE9DF8000000EE100AB8EE400A16487F
:101F800080ED020A6946F62001F0ECFE9DF80000A3
:101F900000EE100AB8EE400A0F4880ED000A6946CC
:101FA000F72001F0DFFE9DF8000000EE100AB8EE09
:101FB000400A094880ED030A6946F82001F0D2FE84
:101FC0009DF8000000EE100AB8EE400A024880EDCD
:101FD000040A08BDD2000020D400002010B5FFF78D
:101FE0009FFF00F0A5FD01F0E1FC3048007860B1F2
:101FF0002F4801680068401C2D4A1060642904D1F4
:1020000000202A4908701146086000F0DBF90446F8
:10201000022C03D106202749087006E0012C04D1C8
:1020200000202449087048708870224800782249AE
:102030000978884208D11F484078204909788842A9
:1020400002D11F48007888B10020FFF79BFE194994
:10205000087800F09DFC174800781749087015486B
:102060004078164908700020154908701548016825
:102070000068401C134A1060C8290ED10020114688
:102080000860FFF721FF104890ED000A0F48007824
:10209000FFF766FD0E4800F0D3F9012001F064F867
:1020A0000449087800F070FB10BD0000D10000204A
:1020B000C400002066000020CA000020CB000020E1
:1020C000C9000020C000002058000020750000203A
:1020D0005F00002070B50025FF241548FFF7DCFEE7
:1020E00000F0FE04FE2C20D0E62C18D006DC7E2C5E
:1020F0000FD0BE2C0BD0DE2C15D106E0EE2C10D06C
:10210000FA2C0AD0FC2C0ED105E001250CE00525A7
:102110000AE0022508E0042506E0032504E0FE2588
:1021200002E0092500E000BF00BF284670BD0000A6
:10213000000002401FB599A30FCB8DE80F000020CF
:102140009A4908709A480078062872D2DFE800F0B1
:102150000322717C7B9497480078012807D194482A
:102160008078934908700020C870487011E0914849
:10217000007805280DD18E484078052801DD012022
:1021800002E08B484078401C8949487008464078F6
:10219000887001E187480078012811D1844840788F
:1021A000022807DD002082490870C8700846807840
:1021B000487047E07E484078401C7D49487041E0C7
:1021C0007C48007805283DD179484078012812D113
:1021D000794800787649C8700846C078042801DD3F
:1021E000002002E07248C078401C7149C870C8786D
:1021F00001F050FE26E06E48407802280BD16C4872
:10220000C07808B9012000E000206949C870C8788A
:1022100001F052FE16E066484078032812D1664865
:1022200040786349C8700846C078052802DD002060
:1022300003E0A6E05E48C078401C5D49C870C878DD
:1022400001F031FEA8E000BF5A480078012806D10D
:102250000020574908700846807848700BE05548C0
:102260000078052807D15248407808B9012000E0DD
:1022700000204F4948708FE04E48007801281BD15C
:102280004B484078012811DD002049490870084674
:102290008078487049480078012871D1002047496A
:1022A000087000F071FD00F05DFE69E04048407884
:1022B000401C3F49487063E03E48007805285FD1E4
:1022C0003B484078012837D1002411E01DF8040074
:1022D00000EE100AB8EE400A3948D0ED000AB4EE1C
:1022E000600AF1EE10FA01D13148C470601CC4B22A
:1022F0000D2CEBDB2E48C0780B2801DD002002E01E
:102300002B48C078401C2A49C8700846C0781DF880
:10231000000000EE100AB8EE400A294880ED000ADD
:1023200090ED000AF2EE0E0A20EE200A80ED010A7E
:1023300001202249087023E01D48407802281FD15F
:102340001F4890ED020ABCEEC00A10EE100A1849B0
:10235000C8700846C0780A2801DD012002E0144850
:10236000C078401C1249C8700846C07800EE100AB8
:10237000B8EE400A124880ED020A01200F490870A9
:102380000AE00C480078012805D1002008490870AF
:1023900008468078487000BF00BF1FBD04080A10BF
:1023A000141E28323C46505A64000000CD00002024
:1023B00066000020CC0000206A000020D20000202F
:1023C000D400002010B500244FF480710C48FFF7B2
:1023D00067FD08B1012000E00020044609480078AC
:1023E00004EB4000C4B204F0010006490870002C60
:1023F00004DD032C02DA002003490870204610BDDA
:1024000000000240CE000020D20000201CB50121B7
:10241000022000F037FBF120009002208DF805002B
:1024200001208DF8040000208DF8060001208DF8B1
:10243000070069460148FFF7C4FC1CBD00040240C8
:1024400070B5054600242248007808B9012000E054
:1024500000201F4908702878022805D10846007816
:1024600044EA8010C4B203E0287844EA8010C4B281
:10247000A878022805D11648007844EA4010C4B272
:1024800003E0A87844EA4010C4B2E878022805D1F5
:102490000F48007844EA0010C4B203E0E87844EA48
:1024A0000010C4B22879022805D10948007844EA0E
:1024B000C000C4B203E0287944EAC000C4B268791D
:1024C00044EA8000C4B2204600F004F870BD000069
:1024D000D300002070B505462E46234800785528C5
:1024E00004D0FFF793FF55201F49087010211F48A3
:1024F000FFF7DFFC20211D48FFF7DDFC40211B48D2
:10250000FFF7D7FC80211948FFF7D3FC012000F02A
:102510002BFE002419E006F0800020B18021134832
:10252000FFF7C9FC03E080211048FFF7C2FC4021FF
:102530000E48FFF7C0FC012000F016FE40210B48BA
:10254000FFF7B7FC7006060E641C082CE3DB1021B5
:102550000648FFF7B0FC012000F006FE10210348FA
:10256000FFF7A7FC70BD0000CF0000200004024070
:1025700070B5002100230F22C4781CB3174C2468C7
:1025800004F4E064C4F5E064C4F30721C1F1040479
:10259000E3B20A4144789C40E1B28478144021437C
:1025A0000C07210E0E4C05786155047804F01F05C8
:1025B0000124AC4005786D11AD0005F1E025C5F8AA
:1025C000004109E0047804F01F050124AC40054DEA
:1025D0000678761145F8264070BD00000CED00E04D
:1025E00000E400E080E100E010B500F00BFA00220A
:1025F0004FF480616348FFF762FC962000F0B4FD61
:10260000012291025F48FFF75AFC322000F0ACFD36
:10261000FD2000F0E1FC122000F0E6FC5B211C2014
:1026200000F0E8FB3F21002000F0FDFBAE2000F0B1
:10263000D3FCB32000F0D0FC912000F0D5FCCA20E0
:1026400000F0CAFC3F2000F0CFFCA22000F0C4FC48
:10265000002000F0C9FCA12000F0BEFC002000F02A
:10266000C3FCA62000F0B8FCA02000F0B5FC1420AC
:1026700000F0BAFC112000F0B7FCB52000F0ACFC73
:10268000002000F0B1FCAB2000F0A6FC012000F01F
:10269000ABFCB42000F0A0FCA02000F0A5FCFD20C5
:1026A00000F0A2FCC12000F097FC7F2000F09CFC11
:1026B000C72000F091FC0A2000F096FCB82000F042
:1026C0008BFC0C2000F090FC182000F08DFC2420E6
:1026D00000F08AFC302000F087FC3C2000F084FCF5
:1026E000482000F081FC542000F07EFC602000F0C7
:1026F0007BFC6C2000F078FC782000F075FC8420D6
:1027000000F072FC902000F06FFC9C2000F06CFC4C
:10271000A82000F069FCB42000F066FC002000F066
:102720005BFCB12000F058FCE22000F05DFCD12001
:1027300000F052FCA22000F057FC202000F054FCD6
:10274000BB2000F049FC1F2000F04EFCB62000F03A
:1027500043FC082000F048FCBE2000F03DFC0720B0
:1027600000F042FCA62000F037FCA92000F034FC69
:102770005C2000F031FC0020FFF704FBAF2000F0EC
:102780002BFC10BD0004024010B5C4B00446072C59
:102790007AD2DFE804F0041C2F4A7AA8BB0000209C
:1027A00070490870704801680068401C6E4A1060EB
:1027B00014290BD100201146086001F025FB6B485D
:1027C000437C027CD4213A20FFF70EF8C6E066482D
:1027D00001680068401C644A1060642909D1002027
:1027E0001146086001F028FB614841786148FFF715
:1027F00011F8B3E05C4801680068401C5A4A106058
:10280000642911D100201146086001F00DFA5A48E0
:10281000008AADF80000122257493FA8FDF75DFE7F
:102820003FA80FC8FEF728FF98E04F4801680068EE
:10283000401C4D4A1060642925D1002011460860D3
:102840004B48407810B101F0BDF903E001F060FAA7
:1028500001F0C0FA464840787A2248491F906846FD
:10286000FDF73BFE82224549083923A8FDF735FED6
:10287000434801682191406822900146DDE9232305
:102880002198FEF76BFE69E067E03948407890B127
:10289000354801680068401C334A1060642921D122
:1028A000002011460860314801F012FA2F48143018
:1028B000FEF742FF16E02C4801680068401C2A4AD7
:1028C000106014290ED100201146086001F0E6F9CD
:1028D0002422264910316846FDF744FE23480FC8DC
:1028E000FFF756F83AE0204801680068401C1E4A8D
:1028F0001060642909D10020114608602148006950
:10290000009020480FC8FFF779F827E016480168C3
:102910000068401C144A1060142914D1002011468C
:1029200008601948007801280DDD00200D49087065
:1029300001F002F801F068FA0C48437C027CE821BF
:10294000302000F08CFEFFF7BFFA104890ED000A2F
:102950000D480078FEF7CEFF00E000BF00BF44B096
:1029600010BD0000C8000020BC000020E8000020CE
:10297000660000206A0000201C01002036010020B3
:102980006D000020D40000207500002058000020B9
:1029900010B50446072C2CD2DFE804F004111417FC
:1029A0001C25280015494878FEF706FFFEF7C4FFEE
:1029B000FC233F22E021002000F09AFE19E0FEF700
:1029C00085FF16E0FEF7B0FE13E00C494878FEF7ED
:1029D00043FE0EE00948407810B1FEF7E5FE01E045
:1029E000FEF7FCFF05E0FFF701F802E0FEF776FFD7
:1029F00000BF00BF00200249086010BD6600002033
:102A0000BC0000201CB50121062000F03BF8FF208F
:102A1000009001208DF8040002208DF805000120AF
:102A20008DF8070000208DF8060069461348FFF76F
:102A3000C8F94FF47050009001208DF80400022076
:102A40008DF8050000208DF807008DF80600694616
:102A50000B48FFF7B6F94FF48040009001208DF845
:102A6000040002208DF8050000208DF807008DF885
:102A7000060069460148FFF7A4F91CBD00080240A2
:102A80000004024029B1064A12680243044B1A604E
:102A900004E0034A12688243014B1A607047000049
:102AA0003038024029B1064A12680243044B1A60CA
:102AB00004E0034A12688243014B1A607047000029
:102AC0004038024029B1064A12680243044B1A609A
:102AD00004E0034A12688243014B1A607047000009
:102AE0002038024029B1064A12680243044B1A609A
:102AF00004E0034A12688243014B1A6070470000E9
:102B00004438024008B569461D2001F02BF99DF8B4
:102B10000000022804DC9DF800000449087003E06E
:102B200000211D2001F080FA08BD00007600002081
:102B300008B56946F92001F015F99DF80000232831
:102B40001BD00CDC132817D004DC012810D012286D
:102B50001CD10EE0142812D0222817D10AE0242814
:102B60000ED0322807D0332808D034280ED108E000
:102B700000BF00BF00BF00BF00BF00BF00BF00BF5D
:102B800000BF9DF800000449087003E000200249DE
:102B9000087000BF00BF08BD7500002010B500BF61
:102BA0000121054800F026F80028F9D0024800F07D
:102BB0002AF8C4B2204610BD003C004010B50446BF
:102BC00000BF0221044800F015F80028F9D0214682
:102BD000014800F01BF810BD003C004021B1028804
:102BE00042F04002028004E002884FF6BF731A40B0
:102BF000028070470246002013890B400BB1012070
:102C000000E0002070470146888970478181704745
:102C100010B50022028802F441520B884C882343ED
:102C20008C882343CC8823430C8923434C8923433A
:102C30008C892343CC8923431A430280838B4FF230
:102C4000FF74234083830B8A038210BD30B50022BA
:102C50008B071C0F0F2303FA04F20B4B8C1053F855
:102C600024309343084C8D1044F8253023468C10B3
:102C700053F824308C07240F00FA04F42343024C49
:102C80008D1044F8253030BD0838014010B5044699
:102C90002146FA2001F0C8F910BD00000CB5002053
:102CA000019000903448006840F480303249086058
:102CB00000BF3148006800F4003000900198401CCB
:102CC0000190009818B90198B0F5A04FF1D12A48A9
:102CD000006800F4003010B10120009001E00020F5
:102CE00000900098012846D123484030006840F009
:102CF00080502149403108602048006840F440403D
:102D00001E4908601C48083000681B4908310860EB
:102D10000846006840F4004008600846006840F437
:102D2000A05008601648091F0860081F006840F09E
:102D30008070091F086000BF0F48006800F0007035
:102D40000028F9D040F205700E4908600A480830A2
:102D5000006820F003000849083108600846006850
:102D600040F00200086000BF03480830006800F02F
:102D70000C000828F8D10CBD00380240007000405B
:102D800008544007003C024010B5194890ED000A75
:102D9000BCEEC00A10EE100AC4B22146F62001F0C3
:102DA00043F9134890ED020ABCEEC00A10EE100A77
:102DB000C4B22146F52001F037F90D4890ED010A23
:102DC000BCEEC00A10EE100AC4B22146F42001F095
:102DD0002BF9074890ED010ABCEEC00A10EE100A6C
:102DE000C0F307242146FC2001F01EF910BD0000AD
:102DF000D400002070B505460C46152000F0ECF814
:102E0000284600F0F1F8204600F0EEF870BD10B54D
:102E10000446A02000F0E0F8204600F0E5F811207C
:102E200000F0E2F810BD70B505460C46752000F0C4
:102E3000D3F8284600F0D8F8204600F0D5F870BD49
:102E400010B55C2000F0C8F810BD042808D14FF080
:102E5000E021096941F004014FF0E022116107E02F
:102E60004FF0E021096921F004014FF0E0221161E7
:102E70007047000010B51548006840F47000134911
:102E800008601348006840F0010011490860002004
:102E90000F49083108600E4800680E4908400C4987
:102EA00008600D48091D0860081F006820F4802094
:102EB000091F0860002006490C310860FFF7EEFE8C
:102EC0004FF0006001498039086010BD88ED00E0D6
:102ED00000380240FFFFF6FE1030002408B5184805
:102EE0000078022824DA0020FEF74CFF002001239E
:102EF00014A230210090182000F0E7FF00201749AD
:102F000048708870C870C87800F0CDFF0020FFF7C7
:102F1000E1FA012012490870FFF754FA00F00100AD
:102F200018B100200D49087002E006200B49087016
:102F300000BFFFF7E7FD024800780228F9DB08BD73
:102F40007600002049424438303020424F4F5449E7
:102F50004E472E2E2E2E2E2E000000006600002042
:102F6000C900002010B501200349087001211D206F
:102F700001F05AF810BD00007600002070B504463C
:102F80000D462A464FF400611148FEF798FF0022D3
:102F90004FF480410F48FEF792FF012251030C4885
:102FA000FEF78DFF00224FF480510948FEF787FF9E
:102FB00021460848FEF781FF012211030448FEF76D
:102FC0007EFF012291030348FEF779FF70BD0000E8
:102FD000000402400008024010B5044600212046CB
:102FE000FFF7CCFF002010BD10B50446012120469C
:102FF000FFF7C4FF002010BD03B401984100009802
:1030000050EAC12018BF04204A0D18BF40F001004B
:1030100040F2FF72B2EB515F08BF40F0020001289E
:1030200008BF052002B0704730380A2801D20120BD
:103030007047002070472DE9F84305460E462F469D
:10304000002431E007F0C008B8F1000F09D0B8F152
:10305000400F0AD0B8F1800F0BD0B8F1C00F10D1DB
:103060000BE000200DF804000CE00F200DF8040028
:1030700008E0F0200DF8040004E0FF200DF8040043
:1030800000E000BF00BFB806070E012E06D11DF8F4
:103090000410C943C8B2FFF7A7FF03E01DF80400FE
:1030A000FFF7A2FF601CC4B2042CCBDBBDE8F883A1
:1030B00070B52DED028B88B004469FED1A0AB0EE74
:1030C000408A1C22184901A8FDF74CFA4026802CA2
:1030D00007DB04F07F04601EC4B2E043C4B244F0D6
:1030E000800400250FE004EA0600B04208D101A8E0
:1030F00000EB850090ED000A30EE080AB0EE408A41
:103100007610681CC5B2072DEDDB802C07DB9FED28
:10311000050A30EE480A08B0BDEC028B70BDB0EE77
:10312000480AF8E7000000004451000810B50446C2
:103130006FF00400FFF789FEE11704EB5171C1F352
:10314000C701074A11701046007800EB4001C1EB3F
:10315000C0104FF6FF7101EAC0000249088010BD9F
:10316000540000205600002070B504464FF407704C
:1031700094FBF0F0C6B24FF4077094FBF0F100FB43
:10318000114085B205E04FF4077000F02FF8701E73
:10319000C6B2002EF7D115B1284600F027F870BD51
:1031A0000146114A12784A434FF0E0235A61002247
:1031B0009A611A46126942F001021A6100BF4FF08B
:1031C000E022106900F001021AB100F48032002AF6
:1031D000F5D04FF0E022126922F001024FF0E02317
:1031E0001A6100229A617047540000200146114A7A
:1031F00012884A434FF0E0235A6100229A611A462E
:10320000126942F001021A6100BF4FF0E02210691A
:1032100000F001021AB100F48032002AF5D04FF01C
:10322000E022126922F001024FF0E0231A6100222D
:103230009A61704756000020F8B505460E460024F6
:1032400011E005EBC400C07805EBC4070090BB7823
:1032500005EBC4077A6805EBC407797815F83400E4
:1032600000F033FE641CB442EBDBF8BD10B52DED6D
:10327000028B82B0B0EE408A00200190642C00D90D
:1032800000249FED2C0A28EE000ABCEEC00A10EEC6
:10329000104A0A20B4FBF0F100FB11408DF8070042
:1032A0000A20B4FBF0F4B4FBF0F100FB11408DF800
:1032B00006000A20B4FBF0F4B4FBF0F100FB11406F
:1032C0008DF805000A20B4FBF0F4B4FBF0F100FB2C
:1032D00011408DF804000020012317A268210090FE
:1032E000282000F0F2FD9DF80400012806DB9DF87F
:1032F00004200421084600F059F804E00B220421C0
:10330000084600F053F89DF805204021042000F005
:103310004DF89DF806207C21042000F047F89DF828
:103320000720B821042000F041F802B0BDEC028B68
:1033300010BD00000000C8422E0000002DE9F04141
:1033400005460C4690463C2D00DD3C25FC2C00DD5E
:10335000FC242046E11704EB917189101C31CFB297
:10336000E11704EB91718910A4EB81013944CFB2CC
:103370001420FFF74CFD781CC1B23846FFF73AFD28
:10338000281DC1B22846FFF74EFDFFF759FD002664
:1033900007E04046FFF728FE4046FFF725FE701C79
:1033A000C6B2082EF5DBBDE8F0810000F0B589B0AB
:1033B00004460D4617468DF81C408DF81D408DF8CB
:1033C0001E4004F11C00C0B28DF81F0004F134004F
:1033D000C0B28DF8200004F11C00C0B28DF82100AD
:1033E00004F11A00C0B28DF822008DF81450281D87
:1033F000C0B28DF8150005F12000C0B28DF816009E
:1034000005F12000C0B28DF81700281DC0B28DF85C
:1034100018008DF81950281DC0B28DF81A0004F15B
:103420001800C0B28DF80C008DF80D4004F11800A2
:10343000C0B28DF80E0004F13400C0B28DF80F0058
:1034400004F13400C0B28DF8100004F13400C0B2B1
:103450008DF8110004F11A00C0B28DF812008DF839
:10346000045005F11C00C0B28DF8050005F12000E4
:10347000C0B28DF8060005F12000C0B28DF807003B
:1034800005F11C00C0B28DF808008DF8095005F157
:103490001C00C0B28DF80A00002630E0C7EBC70060
:1034A00019490844805DA0B1FF200DF1040C009083
:1034B0001CF806300DF10C0C1CF806200DF1140C54
:1034C0001CF806100DF11C0C1CF8060000F034F876
:1034D00013E000200DF1040C00901CF806300DF1F3
:1034E0000C0C1CF806200DF1140C1CF806100DF144
:1034F0001C0C1CF8060000F01FF8701CC6B2072E4A
:10350000CCDB09B0F0BD00000000002010B50A229D
:1035100004210846FFF74AFF0A2240210420FFF752
:1035200045FF0A227C210420FFF740FF0A22B82130
:103530000420FFF73BFF10BD2DE9F84F06460C466F
:1035400017461D463F2E05DC3F2F03DCFF2C01DC18
:10355000FF2D01DDBDE8F88F281BC11700EB91712D
:10356000C1F3870A281BC11700EB91718910A0EBEA
:10357000810101F0FF0B2046E11704EB91718910E6
:103580001C3101F0FF092846E91705EB91718910FC
:103590001C31C9B20091BE4240D11420FFF737FC64
:1035A00048460099FFF726FC31463046FFF73BFCC2
:1035B000FFF746FC4FF0000809E00A98FFF714FDFA
:1035C0000A98FFF711FD08F1010000F0FF08D0454F
:1035D000F3DBBBF1000F09D0BBF1010F07D0BBF14A
:1035E000020F0BD0BBF1030F16D10EE015E0F02057
:1035F000FFF7FAFC0020FFF7F7FC0EE0FF20FFF7D3
:10360000F3FC0020FFF7F0FC07E0FF20FFF7ECFCE5
:10361000F020FFF7E9FC00E000BF00BFAC421CD186
:103620001520FFF7F4FB48460099FFF7E3FB394606
:103630003046FFF7F8FBFFF703FC4FF0000809E006
:103640000A98FFF7D1FC0020FFF7CEFC08F101003B
:1036500000F0FF08B81B4045F2DC00BF7AE72DE917
:10366000F04780468A4616461F46082E00DD08268B
:10367000082F00DD0827D1464546002408E0FF2238
:1036800049462846FFF75AFEA81FC5B2601CC4B2BF
:10369000B442F4DB344608E0002249462846FFF7EE
:1036A0004DFEA81FC5B2601CC4B2082CF4DB09F1A2
:1036B0000C0000F0FF094546002408E0FF224946BF
:1036C0002846FFF73BFEA81FC5B2601CC4B2BC422F
:1036D000F4DB3C4608E0002249462846FFF72EFE70
:1036E000A81FC5B2601CC4B2082CF4DBBDE8F0878B
:1036F0002DE9F84F06460F46154698463F2E06DC44
:103700003F2D04DCFF2F02DCB8F1FF0F01DDBDE827
:10371000F88FA8EB0700C11700EB9171C1F3870A7E
:10372000A8EB0700C11700EB91718910A0EB810194
:1037300001F0FF0B3846F91707EB917189101C3126
:1037400001F0FF0940464FEAE87108EB91718910DA
:103750001C31C9B200911420FFF759FB484600996B
:10376000FFF748FB31463046FFF75DFBFFF768FB8C
:10377000002407E0FF20FFF737FCFF20FFF734FCB1
:10378000601CC4B25445F5DBBBF1000F09D0BBF19E
:10379000010F07D0BBF1020F0BD0BBF1030F16D105
:1037A0000EE015E0F020FFF71FFC0020FFF71CFCE7
:1037B0000EE0FF20FFF718FC0020FFF715FC07E0E4
:1037C000FF20FFF711FCF020FFF70EFC00E000BF28
:1037D00000BF1420FFF71BFB48460099FFF70AFBC8
:1037E00029462846FFF71FFBFFF72AFB002407E0C6
:1037F000FF20FFF7F9FBFF20FFF7F6FB601CC4B2C8
:103800005445F5DBBBF1000F09D0BBF1010F07D028
:10381000BBF1020F0BD0BBF1030F16D10EE015E088
:10382000F020FFF7E1FB0020FFF7DEFB0EE0FF20BA
:10383000FFF7DAFB0020FFF7D7FB07E0FF20FFF7D9
:10384000D3FBF020FFF7D0FB00E000BF00BF152046
:10385000FFF7DDFA49464846FFF7CCFA6A1ED1B2B7
:10386000721CD0B2FFF7DFFAFFF7EAFA002407E094
:10387000F020FFF7B9FB0020FFF7B6FB601CC4B2D5
:10388000A81B401EA042F3DC1520FFF7C0FABBF1D5
:10389000000F09D109EB0A02D1B209EB0A02521E4C
:1038A000D0B2FFF7A7FA07E009EB0A02D1B209EBA1
:1038B0000A02D0B2FFF79EFA6A1ED1B2721CD0B2D1
:1038C000FFF7B1FAFFF7BCFA00242CE0BBF1000FC0
:1038D00009D0BBF1010F0DD0BBF1020F11D0BBF12C
:1038E000030F1CD114E00020FFF77EFB0F20FFF731
:1038F0007BFB15E0F020FFF777FB0020FFF774FB60
:103900000EE00F20FFF770FB0020FFF76DFB07E0D4
:103910000020FFF769FBF020FFF766FB00E000BF27
:1039200000BF601CC4B2A81B401EA042CEDC142005
:10393000FFF76DFA00BFEAE600B589B01C220D4919
:1039400002A8FCF70FFE01A9192000F00BFA9DF860
:103950000400094908700020009002A89DF8041096
:1039600000EB81020023E821382000F0AEFA09B014
:1039700000BD0000605100086A0000201CB5012154
:103980000B20FFF77FF84FF4FF70009002208DF8B6
:10399000050000208DF8040001208DF8070069461D
:1039A0000148FEF70EFA1CBD0000024010B500F001
:1039B00059F826480078012846D10020234908708C
:1039C000234800780A283DD2DFE800F03C050C1EB1
:1039D00011063C3C3C2700BF1E48007808B1FEF7AA
:1039E000A9FB30E01A480078FFF750F92BE01A489D
:1039F0000078012807D119480078332803D01448EB
:103A00000078FFF743F91EE013480078012803D13E
:103A10000F480078FFF73AF915E01148007818B917
:103A200001200F49087004E0002008490870084987
:103A3000087009480078012803D105480078FFF78D
:103A400025F900E000BF00BF10BD0000CD00002040
:103A5000CC000020CE000020D00000207500002007
:103A6000D100002010B508210D48FEF719FA0446D0
:103A70000C480078012807D134B9002009490870A2
:103A80000820FFF703F90AE00648007838B9012C4E
:103A900005D10120034908700A20FFF7F7F810BD8F
:103AA00000000240D0000020A820FFF73FFBC82004
:103AB000FFF75AFBFEF798FDFFF760FFFEF736F9B8
:103AC000FEF7A4FCFEF75AF903E0FFF707FAFEF74A
:103AD00085FAFAE700B587B001210846FEF7D2FF64
:103AE0000121C803FEF7DEFF4FF4E05005900220ED
:103AF0008DF8180000208DF81A0002208DF81900AA
:103B000001208DF81B0005A92B48FEF75AF94FF448
:103B10000040059001208DF8180000208DF81A0053
:103B200002208DF8190001208DF81B0005A92348FB
:103B3000FEF747F906220A211F48FEF78AF90622F6
:103B40000B211D48FEF785F906220C211A48FEF7C5
:103B500080F90121C803FEF7B5FF00214FF40040B2
:103B6000FEF7B0FF0020ADF800004FF48270ADF812
:103B700002000020ADF80400ADF80600ADF8080022
:103B80004FF40070ADF80A003020ADF80C000020B2
:103B9000ADF80E000720ADF8100069460848FFF7A1
:103BA00037F801210648FFF719F84FF400410348A0
:103BB000FEF781F907B000BD000802400000024096
:103BC000003C004030B587B0002526E0002417E017
:103BD00004F14F0205EB850303EBC50302EB430041
:103BE0000DEB040100F0BEF81DF8041005EB850094
:103BF00000EBC5020B4800EB42000155601CC4B24B
:103C0000192CE5DB002105EB850000EBC50205481A
:103C100000EB42004176681CC5B2042DD6DB07B02C
:103C200030BD0000480100203EB5002407E00DEB48
:103C3000040104F1210000F095F8601CC4B20C2CC2
:103C4000F5DB9DF80300144988719DF802101248B5
:103C5000C1719DF8011001729DF8001041729DF82C
:103C600007000D4988729DF806100B48C1729DF837
:103C7000051001739DF8041041739DF80B0006496F
:103C800088739DF80A100448C1739DF809100174E7
:103C90009DF8081041743EBD1C01002010B58AB08B
:103CA00000240AE0002001A9085501AA111904F115
:103CB000C00000F057F8601CC4B2242CF2DB2422B0
:103CC00001A9024800F028F90AB010BDE800002060
:103CD0007CB50546002407E00DEB040104F1E50086
:103CE00000F040F8601CC4B2082CF5DB00240BE0A7
:103CF0001DF80400FFF7DCF905F1140000EB840067
:103D000080ED000A601CC4B2082CF1DB7CBD000011
:103D10001CB5002407E00DEB040104F12D0000F0B8
:103D200021F8601CC4B2082CF5DB9DF803000C4997
:103D300008709DF8020048709DF8010088709DF899
:103D40000000C8709DF8070008719DF8061004482F
:103D500041719DF8051081719DF80410C1711CBD61
:103D60006D00002070B504460D4615B94FF0FF30C8
:103D700070BD4FF400411648FEF79DF80A20FFF78A
:103D80000FFA4FF400411248FEF793F8260A46F066
:103D900080063046FEF712FFFEF700FFE6B230461F
:103DA000FEF70CFFFEF7FAFE00263046FEF706FF90
:103DB000FEF7F4FE28705020FFF7F2F94FF40041AF
:103DC0000348FEF778F80A20FFF7EAF90020CFE76A
:103DD0000000024010B588B000240BE001AA1119C0
:103DE00004F13500FFF7BEFF01A8005D0549085545
:103DF000601CC4B2192CF1DB00200249487608B0DF
:103E000010BD00002E01002038B5002000900024D5
:103E100007E00DEB040104F1E000FFF7A3FF601CD5
:103E2000C4B2042CF5DB04226946024800F0BAF85B
:103E300038BD0000E800002008B569461920FFF7EA
:103E400091FF9DF80000052801DD002000909DF8FD
:103E500000000F49087069460220FFF783FF9DF8B4
:103E60000000062801DD002000909DF800000849B0
:103E700048706946FB20FFF775FF9DF80000012898
:103E800001DD002000909DF800000149887008BD08
:103E90006A00002010B50446062C03DC21461920D8
:103EA00000F0C2F810BD10B50446072C03DC214613
:103EB000022000F0B9F810BD10B5044604B1012489
:103EC0002146FB2000F0B0F810BD2DE9F0478046F8
:103ED0000D4614461E46DDF82090002718E0207895
:103EE00000B916E03EB92278E819C1B24B46404607
:103EF00000F0CAF808E0012E06D12278E819C1B214
:103F00004B46404600F0F8F8641C07F10800C7B2C1
:103F1000E5E700BFBDE8F0872DE9F0419AB007461C
:103F200088461646002520221D496846FCF71AFBE4
:103F300000240FE06000401C18F8000018F814106E
:103F400000EB01222846691CCDB208A941F82020C7
:103F5000601CC4B206EBD671B4EB610FEADB00243F
:103F600015E000250EE008A850F824005DF82510A3
:103F7000884201DA3D5507E0072D01D10820385568
:103F8000681CC5B2082DEEDB00BF601CC4B206EB96
:103F9000D671B4EB610FE4DB1AB0BDE8F08100002C
:103FA000045100082DE9F0418CB006460F469046BA
:103FB000002520221B496846FCF7D4FA00240EE0B5
:103FC0006000401C385C17F8141000EB01222846F2
:103FD000691CCDB208A941F82020601CC4B2022C93
:103FE000EEDB002419E0002512E008A850F82400B8
:103FF0005DF82510884203DA04F11000355409E019
:10400000072D03D1082104F110003154681CC5B2FA
:10401000082DEADB00BF601CC4B2022CE3DB0CB04D
:10402000BDE8F0812451000870B504460D464FF4F8
:1040300000411448FDF73FFF0A20FFF7B1F84FF4A5
:1040400000411048FDF735FF260A3046FEF7B6FD61
:10405000FEF7A4FDE6B23046FEF7B0FDFEF79EFD8A
:104060002846FEF7ABFDFEF799FD5020FFF798F8C4
:104070004FF400410348FDF71EFF0A20FFF790F8B8
:1040800070BD0000000002402DE9F04706460C46D6
:10409000904699463F2E01DCFF2C01DDBDE8F087FC
:1040A0002046E11704EB917189101C31CFB2142026
:1040B000FEF7ADFE781CC1B23846FEF79BFE06F156
:1040C0000800C1B23046FEF7AEFEFEF7B9FE00258D
:1040D0000CE0A8F12000074901EBC00010F805A092
:1040E00049465046FEF7A7FF681CC5B2082DF0DB15
:1040F00000BFD3E7724600082DE9F04706460C469C
:10410000904699463F2E01DCFF2C01DDBDE8F0878B
:104110002046E11704EB917189101C31CFB21420B5
:10412000FEF775FE781CC1B23846FEF763FE06F155
:104130001000C1B23046FEF776FEFEF781FE002584
:104140000CE0A8F12000074901EB001010F805A0D1
:1041500049465046FEF76FFF681CC5B2102DF0DBD4
:1041600000BFD3E76A49000810B500290AD00878D3
:10417000002807D005487844FCF7EEFD002801D060
:10418000002010BD0248784410BD000062120000FB
:104190005A12000021F00042A2F16052B2F5801FD5
:1041A00001F0004328BFD2F17F6C0BD95FEA001CFD
:1041B00043EAC20242EB507018BF704728BF20F09C
:1041C00001007047B2F5801FBCBF184670474FEA28
:1041D000410C1CF5001F02D2084600F043BA70B52E
:1041E00000F075F900000089FFF7F6BF4FF00040BE
:1041F000A0F58000704700002DE9C04130B4DFF821
:10420000A0C23CEA111418BF3CEA131400F0EC8081
:1042100081EA03051CEA111444EAD57418BF1CEAAC
:10422000131500F0C780A4EB05044FF0004545EAE4
:10423000C12145EAC32341EA505143EA525304F1F4
:104240007F74994204F500344FEAC0204FEAC2223D
:1042500008BF904200F09C804FEA13650FF24016B1
:10426000765D4FEA134506FB05F7C7F1807706FB3D
:1042700007F74FEAD737A7FB03687642C8F58038BF
:10428000A7FB06CE38BFA8F1010807FB08E64FF0F0
:10429000000EA6FB028CE6FB03CEDCF1000CCEF197
:1042A000004E38BFAEF1010EA6FB0C584FF00007D0
:1042B0004FF00005E6FB0E87A1FB08C6A0FB07CE6A
:1042C00016EB0E0645F10005E1FB076515F1E04E22
:1042D0007EBFA4F580345FEA46066D4116F1800783
:1042E00045F100054FEA17274FEA066647EA0567DA
:1042F000A6F1DE46B6F1805F4FEA15251FD9384694
:1043000024F0010C05EBC471BCF1FE6F01EB0C1144
:1043100002D8F0BCBDE8008124425CBF01F5801EDC
:104320009EEAC47F02D4F0BCBDE80081244238D4A8
:10433000F0BCA1F1C041BDE8004100F016B94FEA60
:10434000D22242EA43524FEAD323A7FB02864FEA26
:10435000D02040EA415007FB03661EEA0E0F4FEAE9
:10436000D12105FB026658BFA6EB0056B6EB0056FE
:104370004FEA520E4EEAC37E18EB0E0E56EB530E6A
:10438000BDD518EB02085E417F1C55F10005B6E76C
:104390004FF480154FF000074FF000064FF0000873
:1043A000ADE7F0BC4FF0000001F1C04101F0004169
:1043B000BDE8008111EA0C1F0CEA131500D00CE0D7
:1043C00013EA0C1F00F025804FF00000F0BC81EADA
:1043D000030101F00041BDE80081F0BCBDE80041EF
:1043E00081EA030100F0C1B8F0BCBDE8004170B53E
:1043F00000F06DF8097EFC3E00F007B881EA030189
:104400004FF0000001F00041704781EA030100F025
:10441000ACB8F0BCBDE800414FF000002149704746
:10442000FFFDFBF9F7F5F4F2F0EEEDEBE9E8E6E479
:10443000E3E1E0DEDDDBDAD8D7D5D4D3D1D0CFCD00
:10444000CCCBCAC8C7C6C5C4C2C1C0BFBEBDBCBB39
:10445000BAB9B8B7B6B5B4B3B2B1B0AFAEADACAB34
:10446000AAA9A8A8A7A6A5A4A3A3A2A1A09F9F9E0E
:104470009D9C9C9B9A9999989797969595949393C0
:10448000929191908F8F8E8E8D8C8C8B8B8A898957
:1044900088888787868585848483838282818180DA
:1044A0000000FF070000F87FB0FA80F310FA03F174
:1044B0000AD0C3F11D0303F580634FEA41504FEA70
:1044C000035202EBD12170474FF0000070470EF10C
:1044D000020E2EF0030E5EF8046B364205D4012A5C
:1044E00043EB030515F5001F12D8012841EB010C21
:1044F0001CF5001F0CD80ED14FEAD17C15F5001F1A
:104500000CEB4C0C0CF1020C08BF4CEBD37C04E020
:104510004FF0080C01E04FEAD37C0CEB4C0526FA77
:1045200005F606F00706B6F1040C06D20EEB860C73
:10453000BDE870404CF0010C6047DFE80CF0090B5F
:1045400002024FF000414FF00000A1F5002170BDC4
:1045500019461046012851EB010418BFD4F5001488
:1045600084BF002001F0004170BD0808A0F50011D3
:104570004FEA31017047000043004FEAD30C4FEA85
:104580003C0C43401FBF40070CF1605113F0FE4F3D
:1045900070471CF0006F03D100200CF00041704701
:1045A0000CF0004343EA507010B540EACC0000F034
:1045B0000EF800BF000000924FEA0001FFF7D5BFE0
:1045C0004FF000414FF00000A1F5002170470EF1BF
:1045D000020E2EF0030E5EF8044B244204D44FEA80
:1045E0004102B2F17F4F11D84FEA4003B3F17F4F40
:1045F0000CD80ED14FEAD07CB2F17F4F0CEB4C0CB3
:104600000CF1020C08BF4CEBD17C04E04FF0080C1D
:1046100001E04FEAD17C0CEB4C0324FA03F404F0E4
:104620000704B4F1040C06D20EEB840CBDE8104074
:104630004CF0010C6047DFE80CF0070802024FF075
:104640000040A0F5800010BD0846420018BFD2F11E
:10465000807288BF00F0004010BD4FF04070E1EE66
:10466000100A7047FF2141EAD050C0057047FCF79F
:10467000DEB800000000000000000000181818005C
:104680001800006C6C000000000000143E14143E82
:104690001400001018203818300000006468102C36
:1046A0004C00000018203824380000C0C000000072
:1046B0000000001020202020100000080404040442
:1046C00008000000341C382C00000018187E7E18EA
:1046D000180000000000003030000000007E0000E4
:1046E00000000000000000300000000810204080A2
:1046F00000000E11111111110E00040C0404040429
:104700000E000E11020408111E001F020402011106
:104710000E0002060A121F0202001F10101E0111D5
:104720000E000608101E11110E001E1202040808C9
:1047300008000E11110E11110E000E11110F0111B2
:104740000E000000181800181800001818000808BB
:104750001000000810202010080000007C007C00E1
:1047600000000010080404081000003F031C00189B
:104770000000003C425A5A463C000000386C447C21
:10478000420000007C427E427C0000007E404040AF
:104790007E0000007C4242427C0000007E407C4063
:1047A0007E0000007E407C40400000007E404E4283
:1047B0007E00000042427E4242000000381010108D
:1047C000380000001E040404780000004C506844C7
:1047D00042000000404040407E000000C6AAAA926D
:1047E0009200000062524A46420000003C424242AF
:1047F0003C0000007E427C40400000007E4242526D
:104800006C3600007E427C44460000007E403C0244
:104810007C000000FE1010101000000042424242D6
:104820007C00000046242C18100000004A4A5C243A
:10483000240000002418182446000000662C1818D4
:10484000180000007C0810207E0000382020202066
:1048500038000000201008040000001C04040404B8
:104860001C000000182400000000000000000000F0
:10487000FF0000C0C0000000000000000E010F118A
:104880000F001010161911111E0000000E1110104B
:104890000E0001010D1311110F0000000E111F1069
:1048A0000E000205040E04040400000C13130D0195
:1048B0001E00101016191111110004000C0404043C
:1048C0000E000200060202120C000808090A0C0A77
:1048D00009000C04040404040E0000001A15151548
:1048E0001500000016191111110000000E11111110
:1048F0000E000016191916101000000D13130D01EB
:104900000100000016191010100000000F101E0109
:104910001F0008081C0808090600000012121212E5
:104920000D0000001111110A0400000011111515ED
:104930000A000000110A040A110000001111130DF1
:10494000010E00001E040810101E001020606020E0
:10495000100000303030303030300010080C0C08BF
:104960001000000000788700000000000000000038
:104970000000000000000000000000000010101007
:104980001010101000001010000000122424480025
:1049900000000000000000000000000000121212E1
:1049A0007E2424247E24242400000000083C4A4A5B
:1049B00048380C0A0A4A4A3C080800000044A4A8E7
:1049C000A8B0541A2A2A4A4400000000003048487F
:1049D00048506EA494988976000000602020400022
:1049E00000000000000000000000000204080810A1
:1049F00010101010100808040200004020101008C9
:104A000008080808081010204000000000001010DE
:104A1000D63838D610100000000000000000000852
:104A200008087F08080800000000000000000000DF
:104A30000000000000006020204000000000000096
:104A400000007E00000000000000000000000000E8
:104A50000000000000006060000000000204040488
:104A600008081010102020404000000000182442C8
:104A70004242424242422418000000000008380826
:104A8000080808080808083E00000000003C4242F0
:104A9000420204081020427E00000000003C424216
:104AA000020418040242423C0000000000040C0C06
:104AB000142424447F04041F00000000007E4040B2
:104AC00040784402024244380000000000182440AC
:104AD000405C62424242221C00000000007E420410
:104AE000040808101010101000000000003C4242A2
:104AF000422418244242423C000000000038444254
:104B00004242463A02022418000000000000000061
:104B10001818000000001818000000000000000035
:104B20000010000000000010101000000002040837
:104B300010204020100804020000000000000000C7
:104B40007E00007E000000000000000000402010F9
:104B5000080402040810204000000000003C42420B
:104B60006204080808001818000000000038445AC1
:104B7000AAAAAAAAB44244380000000000101018E3
:104B80002828243C444242E70000000000F8444446
:104B900044784442424244F800000000003E424251
:104BA00080808080804244380000000000F8444249
:104BB00042424242424244F80000000000FC4248A7
:104BC00048784848404242FC0000000000FC42484F
:104BD00048784848404040E000000000003C444421
:104BE0008080808E844444380000000000E7424208
:104BF00042427E42424242E700000000007C101028
:104C0000101010101010107C00000000003E08086A
:104C1000080808080808080888F0000000EE444862
:104C200050705048484444EE0000000000E040400E
:104C300040404040404042FE0000000000EE6C6CEE
:104C40006C6C6C54545454D60000000000C762626F
:104C500052524A4A4A4646E2000000000038448266
:104C600082828282828244380000000000FC42423C
:104C700042427C40404040E0000000000038448256
:104C80008282828282B24C380600000000FC4242DE
:104C9000427C4848444442E300000000003E424257
:104CA000402018040242427C0000000000FE9210E6
:104CB00010101010101010380000000000E74242E1
:104CC000424242424242423C0000000000E742426F
:104CD00044242428281810100000000000D6545442
:104CE0005454546C282828280000000000E742246F
:104CF00024181818242442E70000000000EE444461
:104D0000282810101010103800000000007E8404C5
:104D100008081020204242FC0000001E1010101055
:104D200010101010101010101E0000004020202045
:104D3000101010080804040402020078080808088B
:104D4000080808080808080878000018240000006F
:104D50000000000000000000000000000000000053
:104D6000000000000000000000FF00602020400064
:104D70000000000000000000000000000000000033
:104D80000038440C34444C36000000000000C040A1
:104D90004058644242426458000000000000000095
:104DA000001C22404040221C0000000000000602BF
:104DB000023E42424242463B00000000000000002A
:104DC000003C42427E40423C0000000000000C12C9
:104DD000107C10101010107C00000000000000007B
:104DE000003E444438403C42423C00000000C04089
:104DF000405C6242424242E7000000000030300066
:104E0000007010101010107C00000000000C0C004E
:104E1000001C040404040404447800000000C040A2
:104E2000404E4850704844EE0000000000107010E2
:104E3000101010101010107C000000000000000086
:104E400000FE4949494949ED00000000000000000A
:104E500000DC6242424242E7000000000000000025
:104E6000003C42424242423C000000000000000080
:104E700000D864424242645840E000000000000054
:104E8000001A26424242261A0207000000000000D3
:104E900000EE3220202020F800000000000000007A
:104EA000003E42403C02427C000000000000001036
:104EB000107C10101010120C000000000000000008
:104EC00000C642424242463B000000000000000093
:104ED00000EE4444282810100000000000000000EC
:104EE00000DB894A5A54242400000000000000001E
:104EF000007624181818246E00000000000000003E
:104F000000E7422424181810106000000000000080
:104F1000007E44081010227E0000000304040404F4
:104F2000040408040404040403000808080808082A
:104F30000808080808080808080800C020202020E1
:104F40002020102020202020C000205A0400000033
:104F5000000000000000000000000000300C3028BD
:104F600030443060307C309830B430B400080100F8
:104F700054530008007401007C520008100801001E
:104F80000453000810740100645200082008010056
:104F900048530008207401006C52000803100100FF
:104FA000FC52000803880100E852000817100100B5
:104FB000A852000817880100C05200082B100100F9
:104FC000D05200082B880100E0520008380C000085
:104FD0009853000838280000705300083844000037
:104FE00088520008386000008C520008387C0000AD
:104FF00090520008389800009452000838E80000E9
:10500000A053000802100100F852000802580100E5
:105010005C52000814100100F052000814580100FE
:105020005C52000826100100645300082658010055
:105030005C520008021001000C53000802580100E5
:105040008452000814100100A052000814580100F6
:105050008452000826100100B852000826580100AA
:10506000B4530008001001009852000800480100E5
:105070008452000810100100B052000810480100CE
:105080008452000820100100C85200082048010086
:105090008452000830100100D85200083048010046
:1050A0008452000800080100185300080074010031
:1050B0007452000800AC01009C5300081008010065
:1050C00030530008107401007452000810AC010045
:1050D0009C530008200801003C5300082074010084
:1050E0007452000820AC01009C53000830080100F5
:1050F00024530008307401007452000830AC0100E1
:105100009C5300081A00000048010000300700000E
:10511000480C00003C1600006D2800000F40000005
:105120007F7F00001A0000004801000030070000E7
:10513000480C00003C1600006D2800000F400000E5
:105140007F7F00000000003F0000803E0000003E26
:105150000000803D0000003D0000803C0000003C5D
:1051600041455300414E4100445431004454320003
:10517000445433004454340000000000414553338C
:10518000202000414E414C4F4700414F49502D31A6
:1051900000414F49502D3200414F49502D330041BD
:1051A0004F49502D34004F555450555400000000C5
:1051B00044697361626C6500456E61626C652000D4
:1051C000000000000000000002400000000000A0FD
:1051D0000000000005400000000000C800000000C2
:1051E0000C4000000000409C00000000194000003E
:1051F0000020BCBE0000000034400000BFC91B8E70
:1052000000000004B5400000504BCFD06607E2CF4D
:10521000010000006C4100003E8251AADFEEA7347D
:1052200001000000D9420000DCB5A0E23A301F972F
:10523000FFFFFFFFB4450000FD25A0C8E9A3C14F53
:10524000FFFFFFFFFF3F00000000008000000000A4
:10525000FF3F000000000080000000002020202010
:10526000202020202020202020202000202020205E
:1052700020200000202020202000000020202020CE
:10528000000000002000000044543100445432006B
:105290004454330044543400414F4950313A0000E3
:1052A00044545F4950313A004454313A0000000000
:1052B000414F4950323A000044545F4950323A005D
:1052C0004454323A00000000414F4950333A000044
:1052D0004454333A00000000414F4950343A000032
:1052E0004454343A00000000414E413A00000000AE
:1052F0004D41534B3A00000049503A004145533A62
:10530000000000004D757369633A000044545F4E1D
:10531000616D653A000000004D61782020205469DD
:105320006D653A0053616665202054696D653A00E9
:1053300044756D70202054696D653A004275696C42
:10534000642054696D653A004865616450686F6E09
:10535000653A000044656C617920496E7075743A55
:1053600000000000476174655761793A0000000051
:10537000414E410050415241000000004C000000ED
:10538000432D495000000000414F495000000000EB
:105390004D45544552000000414553005300000064
:1053A0004F555400494E50555400000044454C415F
:1053B0005900000000000000F45300080000002025
:1053C000D4000000C4010008C8540008D400002024
:1053D0003C070000E00100081C0000004300000042
:1053E000F8FFFFFF0C0000000E0000000F0000009F
:1053F0002E000000181818181818000000181800BF
:1054000000000018180018181800181818180018AC
:105410001800181800001818180018180018181884
:10542000001818181818181818000000181818185C
:1054300018181818181818000018000000000000AC
:105440001800000000000000000000000000000044
:10545000000000000000000000000000000000004C
:10546000000000000000000000000000061C010019
:10547000A4530008066801008053000806AA010032
:1054800088530008261E010090530008266801007A
:105490007453000826A60100AC53000802E4000083
:1054A0007C53000802F00000945300080000000044
:1054B00000000000000000000000000000000000EC
:0854C0000000000000000000E4
:040000050800018965
:00000001FF
